:020000020000FC
:080000000C9405000C94220091
:100006000C94340004E00EBF0FE50DBF0E941100F2
:100016001093600020E078940C940F00112703E001
:100026000ABB0FE707BB11BB0CE002BB0FE005BF25
:1000360000EC0BBFB0E0A0E6F0E0E2EA08950F9313
:100046000FB70F93BF93AF930C9103950A3011F43A
:100056001D93FACF0C93AF91BF910F910FBF0F91E4
:1000660018950F930FB70F93AF93BF93EF93FF932B
:10007600243009F422272BBBA20F08F4B3950C9168
:10008600E00F08F4F395049108BB2395FF91EF91D7
:10009600BF91AF910F910FBF0F9118953F065B4F20
:0600A600666D7D077F6F0F
:00000001FF
