:020000020000FC
:100000000C9404000C941A0004E00EBF0FE50DBF21
:100010000E9499000E94A7000E9430000E94D50013
:100020000E947F0029F404E60E94DD000E94A700E0
:100030000C940C000F930FB70F93CF93DF933530D1
:1000400009F43327002735BBC30F08F4D395088183
:1000500008BB3395DF91CF910F910FBF0F9118958A
:1000600000E007B900E806B9369A36990C943500D5
:1000700005B1033091F00030B9F000E007B900E8B5
:1000800006B9369A36990C94420005B1033099F0BE
:100090000030C1F00E94690008950091600003954E
:1000A000009360000C943D00009160000A9500935D
:1000B00060000C943D000091610003950093610085
:1000C0000C944A00009161000A95009361000C9421
:1000D0004A000091600017E00E94780000936000E1
:1000E0000091610015E00E9478000093610008957E
:1000F00000601AF0011711F4025003950895FF27CC
:10010000E0E60E948800FF27E2E60E94880008954A
:1001100011910E9492001081E5E6E10F1081102BF1
:100120001083089501E01A951AF0000F0C949300C3
:10013000089507E804BB0FE707BB04E002BB03E038
:1001400005BF00E40BBFD0E0C5E67894089500E059
:100150000093600002E0009361000F920F920E94F2
:10016000BA000F91009362000F91009363000E9408
:10017000D50008950EB7F02F0DB7E02F00916A005B
:100180000770053008F00450048100916A00077080
:10019000073020F4023028F00381089506500C94B3
:1001A000CA00039503950C94CC0005E0CC27C395B9
:0C01B00008F4D3950A95D1F7089508953E
:00000001FF
