:020000020000FC
:1000000004E00EBF0FE50DBFF0E0ECE720E800E0F4
:1000100027BB07D00030F1F306D015D027D026D06B
:1000200000D005910895015452F0FF93EF93F0E052
:10003000E8E8E00F08F4F3950491EF91FF9108953B
:1000400015D014D00BC0A894DAF309D039F010F40D
:1000500008D007D006D00AD002D0F8CF0895000FFC
:10006000089522E3BF9A06D0BF98089522E302D0F4
:10007000E9F7089514E61A95F1F708954441544FAD
:100080005254454B4E494B006088A8904028D008F8
:100090002078B048E0A0F068D85010C030187098B0
:0200A000B8C8DE
:00000001FF
